:020000040800F2
:100000000000022041380008A5350008A735000887
:10001000A9350008AB350008AD3500080000000028
:10002000000000000000000000000000AF350008E4
:10003000B135000800000000B3350008B5350008F0
:10004000913800089138000891380008913800086C
:10005000913800089138000891380008913800085C
:10006000913800089138000891380008913800084C
:10007000BD35000891380008CD35000891380008DA
:10008000DD350008ED35000891380008913800088A
:10009000FD350008913800089138000891380008B3
:1000A000913800089138000891380008913800080C
:1000B00091380008913800089138000891380008FC
:1000C00091380008913800089138000891380008EC
:1000D00091380008913800089138000891380008DC
:1000E00091380008913800089138000891380008CC
:1000F00091380008913800089138000891380008BC
:1001000091380008913800089138000891380008AB
:10011000913800089138000891380008913800089B
:10012000913800089138000891380008913800088B
:10013000913800089138000891380008913800087B
:10014000913800089138000891380008913800086B
:10015000913800080D360008913800081D36000857
:10016000913800089138000891380008913800084B
:10017000913800089138000891380008000000000C
:080180009138000891380008D5
:1001880010B5054C237833B9044B13B10448AFF3C9
:1001980000800123237010BD0C0000200000000027
:1001A800EC38000808B5034B1BB103490348AFF30B
:1001B800008008BD0000000010000020EC38000896
:1001C80053B94AB9002908BF00281CBF4FF0FF31B6
:1001D8004FF0FF3000F072B9ADF1080C6DE904CEB4
:1001E80000F006F8DDF804E0DDE9022304B070470A
:1001F8002DE9F047089E04468846002B4BD18A42D9
:10020800154667D9B2FA82F24AB1C2F1200701FA5B
:1002180002F320FA07F7954047EA030894404FEAAB
:10022800154E230CB8FBFEF71FFA85FC0EFB17884A
:1002380043EA084307FB0CF1994209D9EB1807F187
:10024800FF3080F01B81994240F21881023F2B4415
:100258005B1AA4B2B3FBFEF00EFB103344EA03446E
:1002680000FB0CFCA44509D92C1900F1FF3380F0E0
:100278000781A44540F2048102382C4440EA074033
:10028800A4EB0C0400271EB1D4400023C6E90043A8
:100298003946BDE8F0878B4209D9002E00F0EB8083
:1002A8000027C6E9000138463946BDE8F087B3FAA9
:1002B80083F7002F47D18B4202D3824200F2FA80A3
:1002C800841A61EB030301209846002EE0D0C6E9AA
:1002D8000048DDE702B9FFDEB2FA82F2002A40F0F8
:1002E8008F80491B4FEA154E1FFA85F80127B1FB8D
:1002F800FEFC230C0EFB1C1143EA014308FB0CF126
:10030800994207D9EB180CF1FF3002D2994200F25A
:10031800CD808446591AA3B2B1FBFEF00EFB10142F
:1003280043EA044408FB00F8A04507D92C1900F15A
:10033800FF3302D2A04500F2B6801846A4EB0804A9
:1003480040EA0C409FE7C7F1200CBB4022FA0CFEA4
:100358004EEA030E01FA07F420FA0CF521FA0CF321
:100368004FEA1E482543B3FBF8F92C0C08FB193358
:100378001FFA8EFA44EA034309FB0AF49C4202FA84
:1003880007F200FA07F10BD91EEB030309F1FF305E
:1003980080F087809C4240F28480A9F1020973446E
:1003A8001B1BADB2B3FBF8F008FB103345EA03445E
:1003B80000FB0AFAA24508D91EEB040400F1FF333A
:1003C8006BD2A24569D90238744440EA0940A0FBBF
:1003D8000289A4EB0A044C45C2464B4654D351D07B
:1003E800002E69D0B1EB0A0564EB030404FA0CFC97
:1003F800FD40FC404CEA0505C6E90054002747E7E4
:10040800C2F1200320FA03F7954001FA02F021FA1D
:1004180003F34FEA154E3843010CB3FBFEF71FFAFE
:1004280085F80EFB173341EA034107FB08F38B42BB
:1004380004FA02F407D9691807F1FF3C2FD28B425E
:100448002DD9023F2944CB1A81B2B3FBFEF00EFB33
:10045800103341EA034100FB08F38B4207D96918BE
:1004680000F1FF3C17D28B4215D902382944C91A2A
:1004780040EA07473BE73746304609E70746E7E6DD
:100488001846FBE64145ABD2B8EB020A69EB0E020F
:1004980001381346A4E76046E9E7184695E767463A
:1004A800D1E781467CE702382C4447E7ACF1020CDF
:1004B8002B442FE7384608E73746E9E6704700BF80
:1004C80010B504460E4B18784FF47A73B3FBF0F36B
:1004D8000C4A1068B0FBF3F000F00EFB68B90F2C63
:1004E80001D901200AE0002221464FF0FF3000F038
:1004F800C1FA034B5C60002000E0012010BD00BF82
:10050800000000200800002008B50B4B1A6842F4D0
:1005180000721A601A6842F480621A601A6842F41B
:1005280080721A60032000F093FA0020FFF7C8FFDA
:1005380002F0B2FD002008BD003C0240034A1168E9
:10054800034B1B780B441360704700BFA4000020C6
:1005580000000020014B1868704700BFA40000206D
:10056800002800F0A18038B5044690F82030D3B1B7
:100578002268136823F002031360FFF7EBFF0546B8
:1005880023685A6812F0020F10D0FFF7E3FF401BF0
:100598000A28F5D9636A43F400336362052384F8B3
:1005A8002030012038BD02F093FDE1E71A6842F0DF
:1005B80001021A60FFF7CEFF054623685A6812F059
:1005C800010F0DD1FFF7C6FF401B0A28F5D9636A52
:1005D80043F400336362052384F820300120E1E707
:1005E800227E012A3DD01A6822F080021A60637EBA
:1005F800012B3BD02268136823F040031360A37ECD
:10060800012B39D02268136823F020031360E37E9E
:10061800012B37D02268136843F010031360237F3F
:10062800012B35D02268136823F008031360637F19
:10063800012B33D02268136823F004031360A368E6
:10064800E268134322691343626913436268013AFB
:1006580021681343CB6100206062012384F82030B5
:10066800A0E71A6842F080021A60C0E7226813689F
:1006780043F040031360C2E72268136843F0200385
:100688001360C4E72268136823F010031360C6E7F9
:100698002268136843F008031360C8E722681368E8
:1006A80043F004031360CAE70120704730B490F8A0
:1006B8002040013CE4B2012C06D9436A43F480236C
:1006C8004362012030BC704700296FD10468E46898
:1006D80014F0030F64D0056801F11B0424012C59A0
:1006E80004F004049460002C6BD1056801F11B042C
:1006F80024012C59640D1460056801F11B042401C0
:100708002D5905F00205D560056825446D6805F08A
:100718000F051561056825446D68C5F307259561C2
:1007280005682C446468240C546104680A01144464
:10073800D4F8B8411C7004681444D4F8B841C4F320
:1007480007245C7004681444D4F8B841C4F307441F
:100758009C7004681444D4F8B841240EDC70046812
:100768001444D4F8BC411C7104681444D4F8BC4146
:10077800C4F307245C7104681444D4F8BC41C4F37E
:1007880007449C7104682244D2F8BC21120EDA7125
:10079800F9B90268D36843F02003D360002091E7D9
:1007A800436A43F40013436201208BE70468246919
:1007B80014F0030F8FD1436A43F4001343620120FE
:1007C80080E7056801F11B0424012C59E4085460F2
:1007D80092E70268136943F020031361002071E770
:1007E8007047704770477047704770477047704749
:1007F80070477047704770472DE9F84F0546036802
:100808005C695F689E68D3F80C90D3F81080D3F8C1
:1008180018A014F0010F5AD016F0010F17D00122BA
:100828009A6016F0020F08D116F0040F30D116F0B6
:10083800080F07D04FF4805B0BE0FFF7D1FF4FF0B4
:10084800000B06E0FFF7CFFF4FF0000B01E04FF081
:10085800000B16F4807F0BD02B684FF480729A60DF
:1008680016F4007F17D116F4806F18D04BF4005B94
:1008780016F4803F2DD02B684FF480329A6016F41E
:10088800003F16D116F4802F17D04BF4004B20E010
:100898004FF4006BDDE72846FFF7A3FFE8E716F4FF
:1008A800006F02D04BF4804BE2E72846FFF79CFF2D
:1008B800DEE72846FFF796FF0BE016F4002F02D07C
:1008C8004BF4803B05E02846FFF78FFF01E04FF02F
:1008D800000B14F0080F07D019F0100F04D04BF4D8
:1008E800007B2B681022DA6014F0040F02D019F094
:1008F800080F60D114F0020F04D02B68DB6813F0E6
:10090800030F5FD114F0400F07D018F0100F04D078
:100918004BF4806B2B6810221A6114F0200F02D060
:1009280018F0080F52D114F0100F04D02B681B696F
:1009380013F0030F51D114F4003F02D017F0100F39
:100948004FD114F4803F02D017F0080F50D114F49F
:10095800004F67D017F0040F61D014F4807F04D0E3
:100968001AF0010F01D04BF0010B14F4007F04D0F2
:100978001AF0020F01D04BF0020B14F4806F04D070
:100988001AF0040F01D04BF0040B14F4006F46D09A
:100998001AF0700A43D0BAF1300F48D02FD9BAF103
:1009A800500F47D0BAF1600F47D0BAF1400F31D19C
:1009B8004BF0400B2EE02B680822DA602846FFF740
:1009C80015FF97E7284601F085FF9BE72B6808226B
:1009D8001A612846FFF70CFFA5E72846FFF707FF2F
:1009E800A9E72B6810225A602846FFF702FFA8E7FC
:1009F8002B6808225A602846FFF7FCFEA7E7BAF1E1
:100A0800100F05D0BAF1200F04D14BF0100B01E004
:100A18004BF0080B2A68936923F0700393612B68E5
:100A280004225A60BBF1000F0AD1BDE8F88F4BF0E1
:100A3800200BEFE74BF0800BECE74BF4807BE9E70A
:100A48006B6A43EA0B036B622846FFF7D4FEECE7B8
:100A5800074AD36823F4E0631B041B0C000200F46C
:100A6800E060184340F0BF6040F40030D060704749
:100A780000ED00E030B4174BDB68C3F30223C3F189
:100A88000704042C28BF04241D1D062D18D9033B78
:100A98004FF0FF3505FA04F421EA0401994005FAFC
:100AA80003F322EA0303194300280BDB0901C9B247
:100AB80000F1604000F5614080F8001330BC7047D9
:100AC8000023E5E700F00F000901C9B2024B1954F1
:100AD800F4E700BF00ED00E014ED00E0002807DBBC
:100AE80000F01F02400901239340024A42F82030D7
:100AF800704700BF00E100E00138B0F1807F0AD202
:100B0800064B5860064AF02182F8231000209860AE
:100B180007221A6070470120704700BF10E000E00C
:100B280000ED00E070B110B50446037933B102233B
:100B38002371002020610123237110BD437102F04D
:100B480005FBF4E7012070474379012B31D010B43D
:100B58000123437102220271046822688B40134307
:100B68002360B1B902681168136803F0380311F003
:100B7800040F01D0382B07D00123037100234371E0
:100B880018465DF8044B7047536843F001035360FF
:100B9800F2E702681168136803F4601311F4802FF8
:100BA800EAD0B3F5601FE7D1536843F002035360FE
:100BB800E2E7022070474379012B1FD070B401256A
:100BC8004571022303710668336840F6FE74944049
:100BD80023EA04040B6849680B43934023433360BA
:100BE80004682368C02101FA02F223EA02022260A3
:100BF800057100234371184670BC70470220704786
:100C080030B405682C6824F480242C600468636080
:100C18008368402B05D0036899600368DA6030BCAC
:100C2800704703689A600368D960F8E70268D3B22E
:100C3800103B0B49A1FB03131B090A49C95CC16599
:100C4800032B06D822F47F7222F003028265806D9E
:100C5800704722F47F7222F0030204328265F6E7BD
:100C6800ABAAAAAA04390008836A826992B9012B3F
:100C78000AD01BB1022B01D000207047C36A13F0C1
:100C8800807F2CD100207047C36AB3F1C07F28D081
:100C980000207047B2F5005F05D0022B29D9032B3D
:100CA80015D000207047032B03D8DFE803F01C049D
:100CB8001C0A00207047C36A13F0807F15D10020FA
:100CC8007047C36AB3F1C07F11D000207047C36A70
:100CD80013F0807F01D00120704700207047012069
:100CE800704701207047012070470120704701209C
:100CF800704701207047000070B50446FFF72AFCD2
:100D0800002C5BD00546002384F83430022384F895
:100D180035302268136823F00103136023681A68CA
:100D280012F0010F0AD0FFF715FC401B0528F5D972
:100D380020236365032084F8350070BD1A682048B5
:100D480010406168A2680A43E1680A4321690A43BE
:100D580061690A43A1690A43E1690A43216A0A43AE
:100D68000243616A04291ED01A602668756925F055
:100D78000705636A1D43042B07D1A36A1D43E36A71
:100D88001BB12046FFF770FF90B975612046FFF749
:100D98004DFFE26D3F23934083600020606501238F
:100DA80084F83530C9E7E16A206B01430A43DBE781
:100DB80040236365012084F83500BEE70120BCE7C5
:100DC8003F8010F038B5856D90F83440012C2CD058
:100DD800012480F8344090F83540E4B2012C04D066
:100DE800002380F83430022038BD0446022084F8FD
:100DF8003500002060652046FFF702FFE26D3F23C3
:100E08009340AB602268136843F016031360236CA9
:100E180023B12268136843F008031360226813683B
:100E280043F0010313600020DEE70220DCE790F8BE
:100E38003530DBB2022B03D0802343650120704795
:100E4800052380F835300268136823F00103136026
:100E580000207047F0B583B0044600230193724B1D
:100E68001D68724BA3FB0535AD0A876D3E68C26DE0
:100E780008239340334210D003681A6812F0040F15
:100E88000BD01A6822F004021A60C26D082393403E
:100E9800BB60436D43F001034365E26D012393405A
:100EA800334209D02268526912F0800F04D0BB6027
:100EB800636D43F002036365E26D0423934033429C
:100EC80009D02268126812F0020F04D0BB60636D6B
:100ED80043F004036365E26D10239340334224D04A
:100EE8002268126812F0080F1FD0BB6023681A68C6
:100EF80012F4802F0DD01B6813F4002F04D1236C3B
:100F08009BB12046984710E0A36C73B120469847E0
:100F18000BE01A6812F4807F03D11A6822F00802E5
:100F28001A60236C0BB120469847E26D202393404A
:100F3800334255D02268126812F0100F50D0BB60AF
:100F480094F83530DBB2052B0ED023681A6812F4FA
:100F5800802F33D01B6813F4002F2AD1636C002B29
:100F68003ED0204698473BE02268136823F01603DA
:100F780013602268536923F080035361236CA3B183
:100F88002268136823F008031360E26D3F2393403F
:100F9800BB60002384F83430012384F83530236D96
:100FA800002B3FD0204698473CE0A36C002BE7D1AC
:100FB800EBE7E36BA3B12046984711E01A6812F4F7
:100FC800807F09D11A6822F010021A60002384F881
:100FD8003430012384F83530E36B0BB12046984751
:100FE800636DFBB1636D13F0010F17D0052384F80F
:100FF80035302268136823F001031360019B013325
:101008000193AB4204D823681B6813F0010FF5D194
:10101800002384F83430012384F83530E36C0BB1B5
:101028002046984703B0F0BD08000020B5814E1B4C
:1010380000230F2B00F2D780F0B583B039E00722E8
:1010480000E00022AA403A430234674D45F82420C4
:10105800664A1468F24302EA04054F6817F4803FB1
:1010680001D046EA0405614C2560646802EA04057B
:101078004F6817F4003F01D046EA04055B4C6560F1
:10108800A46802EA04054F6817F4801F01D046EAF5
:101098000405564CA560E46822404D6815F4001F0D
:1010A80001D046EA0402514CE26001330F2B00F2F2
:1010B800988001229A400C6804EA0206B242F4D1F0
:1010C8004C68651E012D03D9112C01D0122C12D1A8
:1010D80085685F000324BC4025EA0405CC68BC4051
:1010E8002C438460456825EA02054C68C4F3001265
:1010F8009A402A434260C4685F000322BA40D24340
:1011080014408D68BD402543C5604C68022C01D051
:10111800122C13D1DD08083550F825E003F0070438
:101128004FEA840C0F2404FA0CF42EEA040E0C691E
:1011380004FA0CF444EA0E0440F8254004682240FE
:101148004C6804F00304BC40224302604A6812F071
:10115800805FAAD000220192254A546C44F480444E
:101168005464526C02F480420192019A9C08A51CB6
:101178001D4A52F8257003F0030295000F22AA4079
:1011880027EA02071B4A90423FF45BAF02F58062F0
:1011980090421AD002F58062904218D002F580621F
:1011A800904216D002F58062904214D002F5806217
:1011B800904212D002F58062904210D002F580620F
:1011C80090423FF43CAF08223CE701223AE7022272
:1011D80038E7032236E7042234E7052232E70622FD
:1011E80030E703B0F0BD704700380140003C0140D3
:1011F800003802400000024012B9090481617047BA
:1012080081617047002800F0C880F8B5044690F85E
:101218003D30002B75D0242384F83D3022681368B4
:1012280023F0010313602268136843F4004313603A
:101238002268136823F40043136000F055FD6268C8
:10124800584B9A4262D8584B98428CBF00230123CE
:10125800002B40F0A480554BA3FB00239B0C216876
:101268004A6822F03F021A434A6025682A6A22F037
:101278003F0266684B498E424ED8013313432B62B6
:101288002568E96921F44F4121F0FF016368454A67
:1012980093424BD801385B00B0FBF3F30133C3F33F
:1012A8000B03042B38BF04230B43EB6121680B6845
:1012B80023F0C003E269206A024313430B602168EC
:1012C8008B6823F4034323F0FF032269E068024399
:1012D80013438B602168CB6823F0FF036269A06920
:1012E80002431343CB602268136843F00103136081
:1012F80000202064202384F83D30206384F83E00D9
:10130800F8BD80F83C3001F055FF84E7284B98423F
:101318008CBF002301239BE74FF4967101FB03F375
:101328002449A1FB03139B090133A7E7A268BAB9B3
:10133800461E03EB4307B6FBF7F60136C6F30B066A
:10134800B6FA86F6760936BBC2B9013803EB430311
:10135800B0FBF3F30133C3F30B0242F40043A3E7FA
:10136800461E03EB830707EB8707B6FBF7F6013644
:10137800C6F30B06B6FA86F67609E4E7013803EBFE
:10138800830303EB8303B0FBF3F20132C2F30B02D6
:1013980042F4404388E7012386E701207047012093
:1013A800AEE700BFA08601007F841E0083DE1B43DA
:1013B800FF083D00D34D62100268D36823F0C003D4
:1013C800D360202380F8353070470268D36823F44F
:1013D8009073D3600268536923F00103536120239B
:1013E80080F83630704700002DE9784B04460268D3
:1013F800136923F4405313610268D36823F4B0538C
:1014080023F00C03D3600168CA688368C06803438B
:10141800206903431343CB602268536923F4407364
:1014280053612368394A934239D002F58062934266
:1014380035D000F059FC2668B5684FF000094946D8
:1014480010EB000849EB090910EB080B41EB090CFC
:101458004FEACC0343EA5B734FEACB0293469C46C0
:1014680063689A009B0F10EB0B0041EB0C01FEF731
:10147800A7FE274CA4FB00325109642202FB11028B
:1014880013013233A4FB03235B0903F0F00202EBE0
:10149800011203F00F0313442B43B36034E000F050
:1014A80033FC2668B5684FF00009494610EB000880
:1014B80049EB090910EB080B41EB090C4FEACC0387
:1014C80043EA5B734FEACB0293469C4663689A00F3
:1014D8009B0F10EB0B0041EB0C01FEF771FE0C4C5F
:1014E800A4FB00325109642202FB110213013233BA
:1014F800A4FB03235B0903F0F00202EB011203F0E3
:101508000F0313442B43B360BDE8788B00100140F0
:101518001F85EB5100283FD010B5044690F83530B0
:10152800002B34D0242384F835302268D36823F480
:101538000053D3602046FFF757FF2268136923F44E
:10154800F04313612268536923F02803536122682A
:10155800D36843F40053D3602268936923F0FF03F0
:10156800217D0B4393612268536923F00403A16929
:101578000B4353612268536943F00203536100200F
:10158800A063202384F8353084F8363010BD80F805
:10159800343001F0B9FEC5E70120704730B583B09B
:1015A80090F83640E4B2202C3DD100293ED0002AE4
:1015B8003ED090F83430012B3CD013460A460446FE
:1015C800012180F8341042620385002585632221B9
:1015D80080F83610016B1848C863216B17480864F7
:1015E800216B1748C864216B0D6521680431206B95
:1015F800FFF7E8FB019523681A6801925A6801927F
:10160800019A84F83450DA6842F48072DA60226809
:10161800536943F0010353612268536943F040035F
:101628005361284600E0022003B030BD0120FBE7EB
:101638000120F9E70220F7E74D1600088D1600088B
:101648009916000808B5836B0268126812F4807F47
:1016580013D100225A851968CA6822F48072CA60B8
:1016680019684A6922F001024A6119684A6922F038
:1016780040024A61202283F83620184601F0F2FF22
:1016880008BD704708B5806BFFF7FBFF08BD7047C2
:1016980010B5846B23685A6994F83530DBB2212B76
:1016A80010D023685A6902F0400294F83630DBB251
:1016B800222B11D0A36B43F01003A3632046FFF73E
:1016C800E6FF10BD02F08002002AEAD000236384FE
:1016D8002046FFF771FEE4E7002AEBD0002363857C
:1016E8002046FFF772FEE5E7002800F0E48170B5B8
:1016F80082B00446036813F0010F3BD0A74B9B68E8
:1017080003F00C03042B2CD0A44B9B6803F00C03B0
:10171800082B21D06368B3F5803F4FD0B3F5A02FD5
:1017280052D09E4B1A6822F480321A601A6822F44A
:1017380080221A606368002B50D0FEF70BFF054625
:10174800964B1B6813F4003F14D1FEF703FF401BB0
:101758006428F5D90320B3E1904B5B6813F4800F3C
:10176800D8D08E4B1B6813F4003F03D06368002B5E
:1017780000F0A381236813F0020F55D0874B9B68B4
:1017880013F00C0F3ED0854B9B6803F00C03082B1D
:1017980033D0E368002B68D0814B01221A60FEF732
:1017A800D9FE05467D4B1B6813F0020F54D1FEF796
:1017B800D1FE401B0228F5D9032081E1774A13683E
:1017C80043F480331360B5E7744B1A6842F48022FF
:1017D8001A601A6842F480321A60ABE7FEF7BAFE64
:1017E80005466E4B1B6813F4003FC3D0FEF7B2FEEC
:1017F800401B6428F5D9032062E1684B5B6813F449
:10180800800FC6D1654B1B6813F0020F04D0E36844
:10181800012B01D0012053E1604A136823F0F8033B
:10182800216943EAC1031360236813F0080F40D00D
:10183800636963B35B4B01221A60FEF78BFE0546B2
:10184800564B5B6F13F0020F33D1FEF783FE401B3C
:101858000228F5D9032033E1504A136823F0F8032E
:10186800216943EAC1031360DEE74D4B00221A6089
:10187800FEF770FE0546494B1B6813F0020FD3D0E4
:10188800FEF768FE401B0228F5D9032018E1454BF6
:1018980000221A60FEF75EFE0546404B5B6F13F0B0
:1018A800020F06D0FEF756FE401B0228F5D903208A
:1018B80006E1236813F0040F79D0384B1B6C13F042
:1018C800805F33D100230193344B1A6C42F080526D
:1018D8001A641B6C03F080530193019B0125324B62
:1018E8001B6813F4807F23D0A368012B34D0052B09
:1018F80038D02A4B1A6F22F001021A671A6F22F0A9
:1019080004021A67A368002B36D0FEF723FE0646AA
:10191800224B1B6F13F0020F48D1FEF71BFE801BF2
:1019280041F288339842F3D90320C9E00025D6E76D
:101938001D4A136843F480731360FEF70BFE0646D6
:10194800194B1B6813F4807FCED1FEF703FE801B72
:101958000228F5D90320B3E0104A136F43F00103BE
:101968001367CFE70D4B1A6F42F004021A671A6F1C
:1019780042F001021A67C5E7FEF7ECFD0646074B81
:101988001B6F13F0020F11D0FEF7E4FD801B41F22C
:1019980088339842F3D9032092E000BF0038024010
:1019A80000004742800E474200700040EDB9A3692D
:1019B800002B00F08480454A926802F00C02082A45
:1019C80051D0022B17D0424B00221A60FEF7C2FDFD
:1019D80004463E4B1B6813F0007F42D0FEF7BAFD69
:1019E800001B0228F5D903206AE0384A136C23F05B
:1019F80080531364DBE7364B00221A60FEF7AAFD1A
:101A08000546324B1B6813F0007F06D0FEF7A2FD97
:101A1800401B0228F5D9032052E0E369226A1343E8
:101A2800626A43EA8213A26A5208013A43EA02430D
:101A3800E26A43EA0263254A5360254B01221A6091
:101A4800FEF788FD0446214B1B6813F0007F06D182
:101A5800FEF780FD001B0228F5D9032030E00020A6
:101A68002EE000202CE0012B2CD0184B9B6803F4AF
:101A78008001E269914201D0012021E003F03F0298
:101A8800216A8A4201D001201AE0616A47F6C072D1
:101A98001A408A4201D0012012E003F44032A16AC0
:101AA8008A4201D001200BE003F07063E26A93429E
:101AB8000AD0012004E001207047012000E0002046
:101AC80002B070BD0120FBE70020F9E700380240B2
:101AD80060004742264B9B6803F00C03042B44D05C
:101AE800082B01D0234870472DE9F04B204B5A684A
:101AF80002F03F025B6813F4800F13D01C4B596847
:101B0800C1F3881100231C48A1FB0001FEF758FB14
:101B1800174B5B68C3F3014301335B00B0FBF3F081
:101B2800BDE8F08B124B5B68C3F388131E46002791
:101B38005C010025E41A65EB0705A90141EA9461F7
:101B4800A001001B61EB0501CB0043EA5073C40000
:101B5800A01943EB07018B0243EA90538402204605
:101B680019460023FEF72CFBD2E70348704700BF55
:101B7800003802400024F40040787D01002800F07D
:101B88009E8070B50446504B1B6803F00F038B42D0
:101B980009D2CBB24C4A1370136803F00F038B427F
:101BA80001D0012070BD236813F0020F17D013F085
:101BB800040F04D0454A936843F4E05393602368C4
:101BC80013F0080F04D0414A936843F460439360CC
:101BD8003E4A936823F0F003A068034393600D46E0
:101BE800236813F0010F32D06368012B21D09A1EAD
:101BF800012A25D9354A126812F0020F61D03349FB
:101C08008A6822F0030213438B60FEF7A3FC0646A2
:101C18002E4B9B6803F00C036268B3EB820F16D05F
:101C2800FEF798FC801B41F288339842F0D90320D4
:101C3800B8E7264A126812F4003FE0D10120B1E764
:101C4800224A126812F0007FD9D10120AAE71E4B60
:101C58001B6803F00F03AB4209D9EAB21A4B1A709A
:101C68001B6803F00F03AB4201D001209AE72368F9
:101C780013F0040F06D0154A936823F4E053E16883
:101C88000B439360236813F0080F07D00F4A93683B
:101C980023F46043216943EAC1039360FFF71AFF05
:101CA8000A4B9B68C3F30313094AD35CD840094B1A
:101CB8001860094B1868FEF703FC002072E7012042
:101CC800704701206EE700BF003C02400038024028
:101CD8000C3900080800002004000020014B186897
:101CE800704700BF0800002008B5FFF7F7FF044B56
:101CF8009B68C3F38223034AD35CD84008BD00BF66
:101D0800003802401C39000808B5FFF7E7FF044B0C
:101D18009B68C3F34233034AD35CD84008BD00BF75
:101D2800003802401C39000830B4036A23F001036C
:101D38000362056A4268846924F073040B681C43D3
:101D480025F002058B682B43104DA84203D005F5FA
:101D58008065A84205D123F00803CD682B4323F002
:101D680004030A4DA84203D005F58065A84205D1B1
:101D780022F440724D6915438A692A43426084619E
:101D88004A684263036230BC704700BF00000140EC
:101D980030B4036A23F480730362036A4268C46937
:101DA80024F073040D682C4323F400738D6843EA10
:101DB8000523124DA84203D005F58065A84206D137
:101DC80023F40063CD6843EA052323F480630B4DB5
:101DD800A84203D005F58065A84207D122F44052F5
:101DE8004D6942EA05128D6942EA05124260C461F2
:101DF8004A68C263036230BC704700BF00000140FC
:101E080030B4036A23F480530362036A4468C269E6
:101E180022F4E6420D6842EA052223F400538D6855
:101E280043EA0533094DA84203D005F58065A84269
:101E380004D124F480444D6944EA85144460C261A5
:101E48004A680264036230BC704700BF000001406A
:101E580010B4036A046A24F001040462846924F05B
:101E6800F00444EA021223F00A030B43826103627E
:101E78005DF8044B704710B4036A23F01003036243
:101E88008469036A24F4704444EA023223F0A0030C
:101E980043EA0113826103625DF8044B704783686B
:101EA80023F07003194341F00701816070477047C0
:101EB8000368304A904212D0B0F1804F0FD0A2F59B
:101EC8007C4290420BD002F58062904207D002F526
:101ED8008062904203D002F57842904203D123F009
:101EE80070034A681343234A90422AD0B0F1804FC6
:101EF80027D0A2F57C42904223D002F5806290421E
:101F08001FD002F5806290421BD002F578429042C1
:101F180017D002F57052904213D002F580629042B9
:101F28000FD002F5806290420BD0A2F59832904211
:101F380007D002F58062904203D002F58062904299
:101F480003D123F44073CA68134323F080034A691A
:101F5800134303608B68C3620B688362054B984226
:101F680003D003F58063984201D10B690363012311
:101F78004361704700000140A8B110B5044690F8CD
:101F88003D305BB1022384F83D30211D2068FFF706
:101F98008FFF012384F83D30002010BD80F83C30CD
:101FA80001F042F9EEE701207047A8B110B50446E8
:101FB80090F83D305BB1022384F83D30211D206844
:101FC800FFF776FF012384F83D30002010BD80F82C
:101FD8003C30FFF76CFFEEE70120704730B4036A2E
:101FE80023F010030362036A4468826922F4E6421C
:101FF8000D6842EA052223F020038D6843EA0513A1
:10200800114DA84203D005F58065A84206D123F0FA
:102018008003CD6843EA051323F040030A4DA84224
:1020280003D005F58065A84207D124F440644D69C2
:1020380044EA85048D6944EA8504446082614A68FB
:102048008263036230BC70470000014090F83C3066
:10205800012B28D010B50446012380F83C30022318
:1020680080F83D300C2A0BD8DFE802F0070A0A0A8C
:10207800110A0A0A150A0A0A19000068FFF754FE2D
:10208800012384F83D30002084F83C0010BD00682E
:10209800FFF7A4FFF4E70068FFF77AFEF0E70068AF
:1020A800FFF7AEFEECE70220704710B4846824F412
:1020B8007F4442EA03230B43234383605DF8044BC8
:1020C800704790F83C30012B66D010B504460123C8
:1020D80080F83C30022380F83D300268936823F48E
:1020E8007F4323F0770393600B68402B4AD013D9C2
:1020F800602B3DD01ED9702B28D0B3F5005F30D1AE
:10210800CB684A6889680068FFF7CFFF2268936840
:1021180043F48043936024E0102B06D004D9202B8D
:1021280003D0302B01D01CE0DBB919462068FFF73B
:10213800B6FE16E0502B14D1CA6849680068FFF74C
:1021480087FE50212068FFF7AAFE0AE0CB684A689C
:1021580089680068FFF7A9FF2268936843F077034E
:102168009360012384F83D30002084F83C0010BDC2
:10217800CA6849680068FFF77EFE60212068FFF79B
:102188008EFEEEE7CA6849680068FFF761FE4021E5
:102198002068FFF784FEE4E70220704710B401F0DE
:1021A8001F01012303FA01F4036A23EA040303620B
:1021B800036A8A40134303625DF8044B70470000CA
:1021C80010B5044601220068FFF7E8FF23680B4AB0
:1021D800934203D002F58062934203D15A6C42F4D1
:1021E80000425A642268936803F00703062B03D061
:1021F800136843F001031360002010BD0000014084
:1022080090F83C30012B3BD030B4012380F83C30AF
:10221800022380F83D3003685C689D6824F07004F0
:102228000A6822435A600368164A93421AD0B3F1E7
:10223800804F17D0A2F57C42934213D002F58062FA
:1022480093420FD002F5806293420BD002F5784298
:10225800934207D002F57052934203D0A2F594320C
:10226800934204D125F080054A6815439D600123F7
:1022780080F83D30002380F83C30184630BC704769
:1022880002207047000001400268D36823F0C003B1
:10229800D360202380F8393070470268D36823F46C
:1022A8009073D3600268536923F0010353612023BC
:1022B80080F83A30704790F83930DBB2212B2AD1B8
:1022C8008368B3F5805F16D0036A5A1C02621A78D5
:1022D80003685A60C38C013B9BB2C384EBB90268A4
:1022E800D36823F08003D3600268D36843F04003C7
:1022F800D36000207047036A1B880268C3F3080391
:10230800536003691BB9036A02330362E2E7036A95
:1023180001330362DEE702207047002070470000A7
:102328002DE9F04B04460268136923F44053C16851
:102338000B43136183680269134342691343C269FB
:102348001A430168CB6823F4164323F00C031343A4
:10235800CB600268536923F4407381690B4353616E
:10236800C369B3F5004F3BD00368714A934200F04C
:10237800AB8002F58062934200F0A680FFF7B4FCC0
:102388004FF00009061849EB090716EB000B47EB5D
:10239800090C4FEACC0343EA5B734FEACB0293463E
:1023A8009C4663689A009B0F10EB0B0049EB0C01ED
:1023B800FDF706FF5F4DA5FB00325109642202FBC1
:1023C800110213013233A5FB03235B0903F0F0026A
:1023D80002EB011203F00F03216813448B60A4E0A1
:1023E8000368534A934239D002F58062934235D04C
:1023F800FFF77AFC83464FF0000C06184CEB0C07ED
:1024080016EB000847EB0C094FEAC90343EA587377
:102418004FEAC8029046994662680021921841EB3B
:1024280001031BEB08004CEB0901FDF7C9FE414D08
:10243800A5FB00325109642202FB1102D30032339A
:10244800A5FB03235B095A0002F4F87202EB0112A0
:1024580003F00703216813448B6066E0FFF754FC20
:1024680080464FF00009061849EB090716EB000BE8
:1024780047EB090C4FEACC0343EA5B734FEACB0204
:1024880093469C4662680021921841EB010318EBC1
:102498000B0049EB0C01FDF793FE264DA5FB00321E
:1024A8005109642202FB1102D3003233A5FB032336
:1024B8005B095A0002F4F87202EB011203F00703F9
:1024C800216813448B6030E0FFF71EFC4FF00009D1
:1024D800061849EB090716EB000B47EB090C4FEA06
:1024E800CC0343EA5B734FEACB0293469C4663688E
:1024F8009A009B0F10EB0B0049EB0C01FDF760FEF7
:102508000C4DA5FB00325109642202FB1102130194
:102518003233A5FB03235B0903F0F00202EB01123F
:1025280003F00F03216813448B60BDE8F08B00BFF4
:10253800001001401F85EB5158B310B5044690F8C0
:1025480039300BB3242384F839302268D36823F454
:102558000053D3602046FFF7E3FE2268136923F493
:10256800904313612268536923F02A035361226858
:10257800D36843F40053D3600020E063202384F839
:10258800393084F83A3010BD80F8383000F036FF22
:10259800D8E701207047000030B583B090F83A4082
:1025A800E4B2202C3DD100293ED0002A3ED090F83C
:1025B8003830012B3CD013460A460446012180F8E6
:1025C8003810826283850025C563222180F83A107D
:1025D800416B1848C863616B17480864616B1748FA
:1025E800C864616B0D6521680431606BFEF7EAFB16
:1025F800019523681A6801925A680192019A84F831
:102608003850DA6842F48072DA602268536943F01D
:10261800010353612268536943F04003536128461C
:1026280000E0022003B030BD0120FBE70120F9E7FC
:102638000220F7E7632600083F2700084B27000819
:1026480008B50168CB6823F04003CB60202380F8ED
:10265800393000F015FD002008BD08B5836B02680D
:10266800126812F4807F13D10022DA851968CA68CB
:1026780022F48072CA6019684A6922F001024A612C
:1026880019684A6922F040024A61202283F83A20F8
:10269800184600F0E9FC08BD08B590F83A30DBB2FE
:1026A800222B45D18368B3F5805F0ED0036903BB45
:1026B80003685A68836A591C81621A70C38D013B8A
:1026C8009BB2C385F3B1002033E0826A036943B942
:1026D80003685B68C3F308031380836A0233836269
:1026E800ECE703685B68DBB21380836A01338362BB
:1026F800E4E703685B68826A511C816203F07F0328
:102708001370DBE70268D36823F02003D360026804
:10271800D36823F48073D3600268536923F00103FC
:102728005361202380F83A3000F09EFC002000E03E
:10273800022008BD704708B5806BFFF7FBFF08BD96
:10274800704710B5846B23685A6994F83930DBB246
:10275800212B10D023685A6902F0400294F83A30CD
:10276800DBB2222B11D0E36B43F01003E363204666
:10277800FFF7E6FF10BD02F08002002AEAD000232E
:10278800E3842046FFF780FDE4E7002AEBD000232E
:10279800E3852046FFF781FDE5E7000010B5044614
:1027A80002681368D168526913F00F0005D113F05D
:1027B800200F02D011F0200F56D100286AD012F055
:1027C800010202D111F4907F64D013F0010F06D0FA
:1027D80011F4807F03D0E06B40F00100E06313F058
:1027E800040F04D01AB1E06B40F00200E06313F06C
:1027F800020F04D01AB1E06B40F00400E06313F05C
:10280800080F07D011F0200F00D11AB1E26B42F087
:102818000802E263E26B002A48D013F0200F02D0CE
:1028280011F0200F24D123685B6903F04003E26BA9
:1028380012F0080F00D13BB32046FFF72EFD2368A6
:102848005A6912F0400F1BD05A6922F040025A61AF
:10285800636B8BB11A4A1A65606BFEF7E8FA28B306
:10286800606B036D984721E02046FFF715FF1DE0D8
:102878002046FFF711FFD6E72046FFF761FF15E076
:102888002046FFF75DFF11E02046FFF759FF0023C0
:10289800E3630BE013F0800F02D011F0800F06D134
:1028A80013F0400F02D011F0400F04D110BD2046A4
:1028B800FFF701FDFAE72046FFF7C2FEF6E700BF83
:1028C800CD28000808B5806B0023C385C384FFF7B3
:1028D80037FF08BD00B58BB001AB03AA0021034840
:1028E800FDF7E4FE0BB05DF804FB00BF2C040020EC
:1028F80008B5002220210248FEF77EFC08BD00BF73
:10290800002002402DE9F04F8FB0002409940A946A
:102918000B940C940D940094AD4B1A6B42F010027A
:102928001A631A6B02F010020092009A01941A6B53
:1029380042F004021A631A6B02F004020192019A2F
:1029480002941A6B42F020021A631A6B02F02002FA
:102958000292029A03941A6B42F001021A631A6BEC
:1029680002F001020392039A04941A6B42F0800267
:102978001A631A6B02F080020492049A05941A6B87
:1029880042F002021A631A6B02F002020592059ADB
:1029980006941A6B42F040021A631A6B02F0400266
:1029A8000692069A07941A6B42F008021A631A6B89
:1029B80002F008020792079A08941A6B42F4807290
:1029C8001A631B6B03F480730893089B22463F210C
:1029D8008048FEF711FC22464BF67C117E48FEF734
:1029E8000BFC224647F63C017C48FEF705FCDFF865
:1029F800048222464FF4D0714046FEF7FDFB224682
:102A080044F203017648FEF7F7FB764E22467F2113
:102A18003046FEF7F1FB744F22464FF2FC01384670
:102A2800FEF7EAFB22464FF41E417048FEF7E4FB2E
:102A3800224620216E48FEF7DFFB3F23099301253C
:102A48000A950B940C9409A96248FEF7F1FA4FF421
:102A5800204BCDF824B0DFF8A091CDF828900B9446
:102A680009A94046FEF7E4FA45F2530309930A948C
:102A78000B9409A94046FEF7DBFA41F67C1309934B
:102A88000A950B940C9409A95348FEF7D1FA4FF410
:102A9800844309930A940B9409A94F48FEF7C8FA8E
:102AA800812309930A940B9409A95048FEF7C0FAA8
:102AB80047F63C0309930A950B940C9409A94748D7
:102AC800FEF7B6FA4FF0200ACDF824A00A950B9528
:102AD8000C9409A94046FEF7ABFA09950A950B94A0
:102AE8000C9409A93E48FEF7A3FA44F2020309939D
:102AF8000A950B950C9409A93948FEF799FACDF86F
:102B080024B00A950B950C9409A93348FEF790FA5E
:102B1800032309930A950B950C9409A93046FEF7EF
:102B280087FA802309930A940B9409A92948FEF788
:102B38007FFA4FF47F4309930A940B9509A9254816
:102B4800FEF776FA4FF4707309930A940B9509A966
:102B58002248FEF76DFA49F2F83309930A940B9468
:102B680009A91F48FEF764FA4FF400730993CDF8DA
:102B780028900B9409A93846FEF75AFA4FF4406397
:102B880009930A940B9409A93846FEF751FA4FF4B1
:102B9800704309930A950B950C9409A93846FEF7DA
:102BA80047FA7C2309930A950B940C9409A930469B
:102BB800FEF73EFA4FF4C07BCDF824B0CDF828904C
:102BC8000B9409A93046FEF733FACDF824B015E086
:102BD800003802400010024000140240001C02406D
:102BE8000004024000180240000C024000000240AD
:102BF8000020024000080240000011100A950B94C2
:102C08000C9409A94046FEF713FA4FF406430993BA
:102C18000A950B940C9409A91D48FEF709FA4FF47C
:102C2800C05309930A950B950C9409A91848FEF707
:102C3800FFF94FF4004309930A940B9409A9154826
:102C4800FEF7F6F9112309930A940B9409A912487F
:102C5800FEF7EEF9FC2309930A950B940C9409A945
:102C68003846FEF7E5F94FF43C4309930A940B9470
:102C780009A93046FEF7DCF9CDF824A00A950B9493
:102C88000C9409A90448FEF7D3F90FB0BDE8F08FFA
:102C980000000240001C02400020024010B582B033
:102CA800002400941E4B1A6B42F400121A631A6B2C
:102CB80002F400120092009A01941A6B42F4800206
:102CC8001A631B6B03F480030193019B2246214680
:102CD8000C20FDF7CFFE0C20FDF700FF2246214611
:102CE8000E20FDF7C7FE0E20FDF7F8FE224621460E
:102CF8001020FDF7BFFE1020FDF7F0FE224621460A
:102D08001120FDF7B7FE1120FDF7E8FE2246214607
:102D18004520FDF7AFFE4520FDF7E0FE02B010BDEF
:102D28000038024030B583B0002400940194074D68
:102D3800074B2B602846FDF7F5FE009401941022FE
:102D480069462846FDF737FF03B030BD1C03002055
:102D58000074004030B58FB000240A940B940C9492
:102D68000D9408940994019402940394049405948E
:102D780006940794164D4FF080432B6053236B60E5
:102D8800AC60EC602C618023AB612846FFF7F4F857
:102D98004FF480530A930AA92846FFF792F9284668
:102DA800FFF703F90894099408A92846FFF728FAB9
:102DB8003023019302940394059404220DEB02013D
:102DC8002846FFF743F9284600F056FA0FB030BD01
:102DD800EC03002030B58DB00024089409940A94BF
:102DE8000B94019402940394049405940694079414
:102DF800134D144B2B60A7236B60AC60EC602C6107
:102E08008023AB612846FFF7B7F84FF48053089347
:102E180008A92846FFF755F92846FFF7C6F83023D2
:102E2800019302940394059404220DEB02012846B1
:102E3800FFF70CF9284600F01FFA0DB030BD00BFAF
:102E4800300300200040014008B50848084B0360E3
:102E58004FF41653436000238360C3600C22026161
:102E6800012202758361FEF755FB08BD700300203F
:102E78000044004008B50948094B0360094B43600A
:102E880000238360C3604FF4804202614361836121
:102E9800C3610362FEF7B6F908BD00BFA8010020B0
:102EA80000580040A086010008B50B480B4B036092
:102EB8000423436000238360C3604FF460220261EF
:102EC8004FF480024261037643768376C3760377B4
:102ED8004377FDF745FB08BD2C0400200064004043
:102EE80008B50848084B03604FF4E13343600023FA
:102EF8008360C36003610C2242618361C361FFF791
:102F08001BFB08BD680100200048004008B50A48BE
:102F18000A4B03604FF4E13343604FF480538360FE
:102F28000023C3604FF4806202610C224261836116
:102F3800C361FFF701FB08BDAC030020001401408A
:102F480030B595B03022002108A800F0C3FC002459
:102F58000394049405940694079401941B4B1A6CEB
:102F680042F080521A641B6C03F080530193019B5A
:102F78000294174B1A6842F480421A601B6803F4E3
:102F880080430293029B0225089501230B9310238B
:102F98000C930E950F9408231093A8231193129560
:102FA8000423139308A8FEF79FFB0F2303930495AC
:102FB80005944FF4A05306934FF4805307930521CB
:102FC80003A8FEF7DBFD15B030BD00BF0038024096
:102FD8000070004008B5FDF797FAFFF7B1FFFFF75B
:102FE80091FCFFF75BFEFFF79DFEFFF7B3FEFFF7CF
:102FF800F1FEFFF729FFFFF73DFFFFF755FFFFF74A
:103008006FFFFFF783FF00F015F800F019FB00F0E1
:10301800C5FB10210148FDF797FDFEE71C030020C2
:1030280070470000024B012283F83C20704700BF24
:103038002800002008B5002207E0084B13440021AF
:1030480083F8401083F8281001320D2AF5DD0E228E
:1030580003490448FFF7A0FA08BD00BF2800002074
:10306800680000206801002008B50268034B1B684F
:103078009A4200D008BDFFF7D5FFFBE768010020A2
:1030880008B50268034B1B689A4200D008BDFFF7D9
:103098002FFCFBE7AC03002082B0002100910B4B12
:1030A8005A6C42F480425A645A6C02F4804200928C
:1030B800009A01911A6C42F080521A641B6C03F05A
:1030C80080530193019B02B0704700BF0038024053
:1030D80010B588B0002303930493059306930793D0
:1030E8000268184B9A4201D008B010BD0024019420
:1030F80003F5EA331A6C42F000721A641A6C02F093
:1031080000720192019A02941A6B42F008021A6343
:103118001B6B03F008030293029B03230393022211
:10312800049206930923079303A90748FDF780FF34
:10313800224621461420FDF79DFC1420FDF7CEFC05
:10314800D2E700BF00640040000C024000B589B01F
:103158000023039304930593069307930268134B84
:103168009A4202D009B05DF804FB0021019103F5F1
:10317800E2331A6C42F000521A641A6C02F00052E0
:103188000192019A02911A6B42F001021A631B6BB9
:1031980003F001030293029B202303930323049368
:1031A80003A90348FDF744FFDCE700BF00740040B3
:1031B8000000024030B589B00023039304930593BF
:1031C800069307930268154B9A4201D009B030BDA7
:1031D80000250195124C236B43F002032363236BF4
:1031E80003F002030193019B4FF4406303931223FE
:1031F800049301230593032306930423079303A948
:103208000848FDF715FF0295236C43F480032364F7
:10321800236C03F480030293029BD7E70058004015
:10322800003802400004024082B00368B3F1804FC6
:1032380004D00F4A93420ED002B070470023009387
:103248000C4B1A6C42F001021A641B6C03F0010368
:103258000093009BF0E700230193064B5A6C42F45D
:1032680080325A645B6C03F480330193019BE3E77B
:10327800004001400038024000B589B000230393A4
:1032880004930593069307930368B3F1804F05D021
:10329800194A934218D009B05DF804FB0023019342
:1032A800164B1A6B42F001021A631B6B03F0010301
:1032B8000193019B0223039304930123079303A91A
:1032C8000F48FDF7B5FEE6E7002302930B4B1A6B98
:1032D80042F010021A631B6B03F010030293029B67
:1032E80040230393022304930323079303A9054868
:1032F800FDF79EFECFE700BF0040014000380240C6
:10330800000002400010024030B589B0002303934A
:1033180004930593069307930268324B9A4201D0AF
:1033280009B030BD04460025019503F5FA331A6C3F
:1033380042F400321A641A6C02F400320192019AC3
:1033480002951A6B42F001021A631B6B03F001032A
:103358000293029B0C2303930223049303230693F3
:103368000723079303A92048FDF762FE1F48204B57
:1033780003604FF0006343608560C5604FF480636D
:103388000361456185614FF48073C3614FF48033F5
:1033980003624562FDF7B0FCE8B9144B23639C63F4
:1033A8001448154B03604FF000634360402383606B
:1033B8000023C3604FF48062026143618361C3618B
:1033C8004FF4803202624362FDF796FC30B9094B34
:1033D800E3629C63A4E7FFF723FEDEE7FFF720FE26
:1033E800F5E700BF0044004000000240A8000020AC
:1033F80088600240BC020020A060024030B58BB05B
:1034080004460023059306930793089309930368DA
:10341800574A934204D0574A934261D00BB030BD0B
:1034280000250195544B1A6C42F480221A641A6CD8
:1034380002F480220192019A02951A6B42F004026A
:103448001A631B6B03F004030293029B4FF440635F
:103458000593022306930123079303230893072365
:10346800099305A94548FDF7E3FD4548454B036029
:103478004FF00063436040238360C5604FF480636E
:10348800036145618561C5614FF40033036245629C
:10349800FDF732FCF0B93A4B23639C633A483B4B47
:1034A80003604FF00063436000238360C3604FF400
:1034B80080620261436183614FF48072C2614FF49C
:1034C800003202624362FDF717FC30B92E4B63638A
:1034D8009C63A3E7FFF7A4FDDDE7FFF7A1FDF5E790
:1034E80000250395244B5A6C42F020025A645A6C0A
:1034F80002F020020392039A04951A6B42F04002EC
:103508001A631B6B03F040030493049B4FF484433A
:1035180005930223069301230793032308930823A3
:10352800099305A91A48FDF783FD1A481A4B036049
:103538004FF02063436040238360C5604FF480638D
:10354800036145618561C56105624562FDF7D4FB8C
:1035580058B9104B23639C63002211464720FDF79E
:1035680089FA4720FDF7BAFA58E7FFF759FDF0E75F
:1035780000480040001401400038024000080240A2
:10358800FC01002058600240080100202860024029
:10359800001802405C020020A06402407047FEE769
:1035A800FEE7FEE7FEE770477047704708B5FCF78F
:1035B800C5FF08BD08B50248FDF74CFC08BD00BFB3
:1035C8000801002008B50248FDF744FC08BD00BF0B
:1035D800FC01002008B50248FDF73CFC08BD00BF0F
:1035E800A800002008B50248FDF734FC08BD00BF5C
:1035F800BC02002008B50248FDF7FEF808BD00BF70
:103608002C04002008B50248FDF724FC08BD00BFC3
:103618005C02002008B50248FFF7C0F808BD00BFEB
:10362800AC030020054BD3F8882042F47002C3F89D
:1036380088204FF000629A60704700BF00ED00E0FC
:1036480008B5052202490348FDF7A8FF08BD00BFD9
:103658007C00002070030020014B01225A72704741
:103668007800002008B50268034B1B689A4200D016
:1036780008BDFFF7F1FFFBE77003002008B528B984
:10368800012204210448FDF7B7FD08BD00220421EA
:103698000148FDF7B1FDF8E70018024008B528B960
:1036A800012208210448FDF7A7FD08BD00220821D2
:1036B8000148FDF7A1FDF8E700140240F8B50D46F2
:1036C80014461F4688B1012A0FD0012F0DD00028BB
:1036D8002BDB2A4E012210213046FDF78DFD0022FA
:1036E80020213046FDF788FD0AE0244E00221021F3
:1036F8003046FDF781FD002220213046FDF77CFD94
:10370800FDB1012C1DD0012F1BD0002D27DB1C4C37
:1037180000224FF480612046FDF76EFD01224FF430
:1037280000712046FDF768FD18E0144E00221021B4
:103738003046FDF761FD012220213046FDF75CFD92
:10374800DEE70F4C00224FF480612046FDF754FD60
:1037580000224FF400712046FDF74EFDF8BD084CDD
:1037680001224FF480612046FDF746FD00224FF408
:1037780000712046FDF740FDF0E700BF001402404D
:1037880000000240014B00225A7170478C00002053
:10379800014B00229A7170478C00002038B5234DE8
:1037A8000024EC602846FEF700FC04212846FEF7BA
:1037B80007FD1F4B1A6842F080021A601A6822F04F
:1037C80002021A605A6922F001025A61DA6942F467
:1037D8000062DA61FFF7D6FF164DEC602846FEF767
:1037E800E4FB04212846FEF7EBFC4FF080431A68FF
:1037F80042F080021A601A6822F002021A605A69BE
:1038080022F001025A61DA6942F40062DA61FFF7D4
:10381800BFFF2046FFF732FF2046FFF73FFF234652
:10382800224621462046FFF749FF38BD30030020D5
:1038380000400140EC030020DFF834D0002103E011
:103848000C4B5B58435004310B480C4B42189A42BE
:10385800F6D30B4A02E0002342F8043B094B9A4294
:10386800F9D3FFF7DFFE00F011F8FFF7B3FB70475D
:103878000000022034390008000000200C0000205D
:103888000C00002054040020FEE7000070B50D4E27
:103898000D4CA41BA4100025A54209D10B4E0C4CBD
:1038A80000F020F8A41BA4100025A54205D170BD86
:1038B80056F8253098470135EEE756F825309847F1
:1038C8000135F2E72C3900082C3900082C3900089A
:1038D8003039000802440346934200D1704703F888
:1038E800011BF9E7F8B500BFF8BC08BC9E46704755
:0C38F800F8B500BFF8BC08BC9E46704745
:10390400000610160006101600000000000000005B
:103914000102030406070809000000000102030471
:08392400D4C8FF7F0100000080
:04392C00AD010008E1
:043930008901000801
:0C39340001000000100000000024F4005E
:040000050800384176
:00000001FF
